:03000000020AE110
:0C0AE100787FE4F6D8FD75812C0209CE68
:100ACB007F057E00120A7B7F38120A9B7F0C120A6D
:060ADB009B7F06020A9B4E
:100A9B008FA0C2B0C2B1D2B27F057E00120A7BC258
:080AAB00B27F057E00020A7B08
:100AB3008FA0D2B0C2B1D2B27F057E00120A7BC230
:080AC300B27F057E00020A7BF0
:100A56008B2A8A2B892CAB2AAA2BA92C1208F66082
:100A660013052CE52C7002052B14F91208F6FF125B
:050A76000AB380E2223A
:100A1C00484B502076616C75653A200041646974CE
:100A2C007961204E696A61766500003000310032D0
:100A3C0000330034003500360037003800390041EF
:0A0A4C00004200430044004500464C
:1009CE0078087C007D007BFF7A0A79367E007F20D6
:1009DE001208D0120ACB7F80120A9B7BFF7A0A790B
:1009EE001C120A567FC0120A9B7BFF7A0A792812C4
:1009FE000A5612090FEF25E02408F8E6F52808E656
:0E0A0E00F5297F8B120A9BAF29120AB380E4F0
:100A7B00E4FDFCC3ED9FEC9E5015E4FBFA0BBB00B1
:0F0A8B00010ABA03F8BBE8F50DBD00010C80E4C9
:010A9A002239
:10090F00C280D281D282D283D284D285D286D2873C
:10091F00208404E4FEFF222085057E007F01222033
:10092F0086057E007F02222087057E007F0322D26C
:10093F0080C281D282D283D284D285D286D28720BE
:10094F0084057E007F04222085057E007F052220FE
:10095F0086057E007F06222087057E007F0722D234
:10096F0080D281C282D283D284D285D286D287208E
:10097F0084057E007F08222085057E007F092220C6
:10098F0086057E007F0A222087057E007F0B22D2FC
:10099F0080D281D282C283D284D285D286D287205E
:1009AF0084057E007F0C222085057E007F0D22208E
:0F09BF0086057E007F0E222087047E007F0F2298
:10080000E709F608DFFA8046E709F208DFFA803EDA
:1008100088828C83E709F0A3DFFA8032E309F608C7
:10082000DFFA8078E309F208DFFA807088828C832F
:10083000E309F0A3DFFA806489828A83E0A3F608E3
:10084000DFFA805889828A83E0A3F208DFFA804CBD
:1008500080D280FA80C680D4806980F28033801094
:1008600080A680EA809A80A880DA80E280CA8033FD
:1008700089828A83ECFAE493A3C8C582C8CCC58375
:10088000CCF0A3C8C582C8CCC583CCDFE9DEE78045
:100890000D89828A83E493A3F608DFF9ECFAA9F0C4
:1008A000EDFB2289828A83ECFAE0A3C8C582C8CC1A
:1008B000C583CCF0A3C8C582C8CCC583CCDFEADE33
:1008C000E880DB89828A83E493A3F208DFF980CC95
:1008D00088F0EF60010E4E60C388F0ED2402B4048E
:1008E0000050B9F582EB2402B4040050AF23234535
:0608F00082239008507302
:1008F600BB010689828A83E0225002E722BBFE0200
:09090600E32289828A83E4932232
:00000001FF
