:030000000209FDF5
:0C09FD00787FE4F6D8FD7581270209B56B
:1009DD00003F0006005B004F0066006D007D0007C4
:1009ED00007F006F0077007C0039005E0079007198
:1009B50078087C007D007BFF7A0979DD7E007F2049
:1009C5001208D0E4F59075A0FF1208F6EF25E02493
:0809D50008F808E6F59080F136
:1008F600C2A0D2A1D2A2D2A3D2A4D2A5D2A6D2A756
:1009060020A404E4FEFF2220A5057E007F0122200C
:10091600A6057E007F022220A7057E007F0322D245
:10092600A0C2A1D2A2D2A3D2A4D2A5D2A6D2A720D7
:10093600A4057E007F042220A5057E007F052220D7
:10094600A6057E007F062220A7057E007F0722D20D
:10095600A0D2A1C2A2D2A3D2A4D2A5D2A6D2A720A7
:10096600A4057E007F082220A5057E007F0922209F
:10097600A6057E007F0A2220A7057E007F0B22D2D5
:10098600A0D2A1D2A2C2A3D2A4D2A5D2A6D2A72077
:10099600A4057E007F0C2220A5057E007F0D222067
:0F09A600A6057E007F0E2220A7047E007F0F2271
:10080000E709F608DFFA8046E709F208DFFA803EDA
:1008100088828C83E709F0A3DFFA8032E309F608C7
:10082000DFFA8078E309F208DFFA807088828C832F
:10083000E309F0A3DFFA806489828A83E0A3F608E3
:10084000DFFA805889828A83E0A3F208DFFA804CBD
:1008500080D280FA80C680D4806980F28033801094
:1008600080A680EA809A80A880DA80E280CA8033FD
:1008700089828A83ECFAE493A3C8C582C8CCC58375
:10088000CCF0A3C8C582C8CCC583CCDFE9DEE78045
:100890000D89828A83E493A3F608DFF9ECFAA9F0C4
:1008A000EDFB2289828A83ECFAE0A3C8C582C8CC1A
:1008B000C583CCF0A3C8C582C8CCC583CCDFEADE33
:1008C000E880DB89828A83E493A3F208DFF980CC95
:1008D00088F0EF60010E4E60C388F0ED2402B4048E
:1008E0000050B9F582EB2402B4040050AF23234535
:0608F00082239008507302
:00000001FF
