:030000000209D51D
:0C09D500787FE4F6D8FD7581270208F653
:1009B500003F0006005B004F0066006D007D0007EC
:1009C500007F006F0077007C0039005E00790071C0
:1008F60078087C007D007BFF7A0979B57E007F2031
:100906001208D0E4F59075A0FFC2A0D2A1D2A2D25F
:10091600A3D2A4D2A5D2A6D2A720A403850990204B
:10092600A503850B9020A603850D9020A703850FB0
:1009360090D2A0C2A1D2A2D2A3D2A4D2A5D2A6D22C
:10094600A720A40385119020A50385139020A60354
:1009560085159020A703851790D2A0D2A1C2A2D256
:10096600A3D2A4D2A5D2A6D2A720A40385199020EB
:10097600A503851B9020A603851D9020A703851F30
:1009860090D2A0D2A1D2A2C2A3D2A4D2A5D2A6D2DC
:10099600A720A40385219020A50385239020A603E4
:0F09A60085259030A70302090F85279002090FBE
:10080000E709F608DFFA8046E709F208DFFA803EDA
:1008100088828C83E709F0A3DFFA8032E309F608C7
:10082000DFFA8078E309F208DFFA807088828C832F
:10083000E309F0A3DFFA806489828A83E0A3F608E3
:10084000DFFA805889828A83E0A3F208DFFA804CBD
:1008500080D280FA80C680D4806980F28033801094
:1008600080A680EA809A80A880DA80E280CA8033FD
:1008700089828A83ECFAE493A3C8C582C8CCC58375
:10088000CCF0A3C8C582C8CCC583CCDFE9DEE78045
:100890000D89828A83E493A3F608DFF9ECFAA9F0C4
:1008A000EDFB2289828A83ECFAE0A3C8C582C8CC1A
:1008B000C583CCF0A3C8C582C8CCC583CCDFEADE33
:1008C000E880DB89828A83E493A3F208DFF980CC95
:1008D00088F0EF60010E4E60C388F0ED2402B4048E
:1008E0000050B9F582EB2402B4040050AF23234535
:0608F00082239008507302
:00000001FF
