:03000000020A25CC
:0C0A2500787FE4F6D8FD75813102091CD1
:1009FD0000FE00FD00FB00F7003F0006005B004F0E
:100A0D000066006D007D0007007F006F0077007CA1
:080A1D000039005E0079007150
:10091C0078087C007D007BFF7A0979FD7E007F08DA
:10092C001208D078107C007D007BFF7A0A79057E56
:10093C00007F201208D0E4F59075A0FFE4F530F5A7
:10094C0031E53125E02408F808E6F5A0AFA0EFF476
:10095C0070030209E9AFA0EF1208F609AA7709BEE5
:10096C007B09D27D09E67E09A5B709B9BB09CDBDC6
:10097C0009E1BE09A0D709B4DB09C8DD09DCDE0931
:10098C009BE709AFEB09C3ED09D7EE000009E98538
:10099C00119080498513908044851590803F851770
:1009AC0090803A851B9080358519908030851D90FC
:1009BC00802B851F90802685239080218521908017
:1009CC001C85259080178527908012852B90800D93
:1009DC008529908008852D908003852F900531E521
:1009EC00317002053064044530600302094D020980
:0109FC0048B2
:10080000E709F608DFFA8046E709F208DFFA803EDA
:1008100088828C83E709F0A3DFFA8032E309F608C7
:10082000DFFA8078E309F208DFFA807088828C832F
:10083000E309F0A3DFFA806489828A83E0A3F608E3
:10084000DFFA805889828A83E0A3F208DFFA804CBD
:1008500080D280FA80C680D4806980F28033801094
:1008600080A680EA809A80A880DA80E280CA8033FD
:1008700089828A83ECFAE493A3C8C582C8CCC58375
:10088000CCF0A3C8C582C8CCC583CCDFE9DEE78045
:100890000D89828A83E493A3F608DFF9ECFAA9F0C4
:1008A000EDFB2289828A83ECFAE0A3C8C582C8CC1A
:1008B000C583CCF0A3C8C582C8CCC583CCDFEADE33
:1008C000E880DB89828A83E493A3F208DFF980CC95
:1008D00088F0EF60010E4E60C388F0ED2402B4048E
:1008E0000050B9F582EB2402B4040050AF23234535
:0608F00082239008507302
:1008F600D083D082F8E4937012740193700DA3A391
:1009060093F8740193F5828883E4737402936860A4
:06091600EFA3A3A380DFA4
:00000001FF
